:020000040800F2
:1000000078100020ED010008F5010008393C0008D7
:10001000F9010008FB010008FD01000800000000D4
:10002000000000000000000000000000FF010008C8
:1000300001020008000000000302000881650008BA
:10004000070200080702000807020008070200086C
:10005000070200080702000807020008070200085C
:10006000070200080702000807020008070200084C
:10007000070200080702000807020008070200083C
:100080000702000800000000170700080702000828
:10009000070200080702000807020008070200081C
:1000A000B9690008FD690008070200080702000896
:1000B00007020008070200080702000807020008FC
:1000C00007020008070200080702000807020008EC
:1000D000070200084D850008070200080702000813
:1000E000590B000807020008070200080702000871
:1000F00007020008070200080702000800000000CD
:1001000000000000070200080000000007020008CD
:1001100007020008000000000702000807020008AC
:10012000070200080702000807020008070200088B
:10013000070200080000000000000000070200089D
:10014000070200080702000800000000000000008D
:10015000000000000000000000000000000000009F
:10016000000000000000000000000000070200087E
:10017000070200080000000000000000000000006E
:10018000000000000702000800000000000000005E
:10019000000000000000000000000000000000005F
:1001A000000000000000000007020008070200082D
:1001B000070200080702000807020008000000000C
:1001C000000000000702000800000000000000001E
:1001D0000702000807020008DFF80CD000F05EFA02
:1001E00000480047A5860008781000200648804790
:1001F00006480047FEE7FEE7FEE7FEE7FEE7FEE70C
:10020000FEE7FEE7FEE7FEE7B5650008D901000856
:1002100030B400F10C046830029D2EC04FF0000C89
:1002200000F824CC00F823CC6146783804E0A468B8
:100230000CF1010202F0FF0C002C18BFBCF1050FFD
:10024000F5D30CEB4C0200EB8202916080F848C0C1
:100250000188642251434FF47A72B1FBF2F180F8C5
:10026000561030BC70472DE9F04704460026D4E90B
:100270001A89C18080F8556080F8586080F8536012
:1002800000F10C0580F854600F46484608F097F9D5
:100290000021404606F0B8F8608810FB07F001B274
:1002A000484608F0E8F900221146404606F02DF8CD
:1002B0002A88A88810FB07F001B2404606F025F80E
:1002C0002A88688810FB07F001B2484608F095F9C3
:1002D0002888218848434FF47A71B0FBF1F0401C24
:1002E000A080A868A06084F85760BDE8F0872DE979
:1002F000F05F044680884FF0010A0025D3460028AD
:100300007ED0401EA08094F8580030B994F8550073
:100310000028206F06D041688847A08800286FD049
:1003200000F0E0B8C16879B194F85710491CC9B21F
:1003300084F8571094F85620914205D9C16888472F
:1003400084F8535084F85750206F0169884700287B
:1003500008BF84F8535006D094F853007F283CBF60
:10036000401C84F85300206FC168002994F8531092
:1003700005D094F85620B1EB520F02D0CDE77F297B
:10038000CBD1006805F045FF060048BF70420FFA68
:1003900080F8B4F90600002802DD002E02DD04E03A
:1003A000002E02DB84F85350B7E7B4F84A101FFA66
:1003B00088F0884205D9206F4168884784F855B095
:1003C000ABE7B4F84C108842A7D94FF000094F466C
:1003D000E06E08F00EF9206F81688847A068002859
:1003E00008BFA5806FD0B0F90200404512DAA168BD
:1003F000886840B3B1F90290B1F90470A06000E0E0
:1004000022E094F85810491C84F85810B0F9020002
:100410004045ECDBA168B1F90200B1F90410A0EB92
:100420000900C91B714391FBF0F007FA80F001B29B
:100430000022A06E05F069FFA4F804B004F15C008E
:10044000A06006203BE0A580A068D8B394F85800CF
:1004500010B101280BD00FE0606F04F0CBFD84F8E1
:1004600054B0606F04F0CAFD84F8535004E0606F2C
:1004700004F0C2FD84F85450A068E288818811FB22
:1004800002F1028809B2A06E05F03FFFA068E28881
:10049000418811FB02F1028809B2E06E08F0ADF864
:1004A000A1682288088850434FF47A72B0FBF2F0BA
:1004B000401CA0808868A06094F85800401C84F814
:1004C00058000FE0FFE794F8481094F85800491ED0
:1004D000884208BF4FF0000A04D0072804BF84F800
:1004E0005850A5805046BDE8F09F70B504468088FE
:1004F000012520B1401E0004000CA08028D1A06876
:10050000002808BF002523D08188E28811FB02F172
:10051000028809B2A06E05F0F8FEA068E288418862
:1005200011FB02F1028809B2E06E08F066F8A168DA
:100530002288088850434FF47A72B0FBF2F0401CD6
:10054000A0808868A06094F85800401C84F8580087
:10055000284670BD014600208968002908BF012097
:10056000704710B50021C46E81608180204605F07F
:1005700050FE01462046BDE81040002208F03DB87C
:1005800001EB410100EB81008281704701EB4101E9
:1005900000EB8100C281704701EB410100EB81005B
:1005A0000282704701EB410100EB810080897047B6
:1005B00001EB410100EB8100B0F90E00704701EB47
:1005C000410100EB8100B0F91000704790F848003D
:1005D000704790F8540070472DE9F05F0546002001
:1005E00092469B4688460646814640241BE02846A4
:1005F00041464746224600F041F853465A46C01A43
:10060000914110D311461846224600F028F82D1AC1
:1006100067EB01084F4622460120002100F01FF839
:1006200017EB00094E41201EA4F10104DFDC48460F
:1006300031462A464346BDE8F09FD2B201E000F8B9
:10064000012B491EFBD270470022F6E710B5134676
:100650000A4604461946FFF7F0FF204610BD202A3F
:1006600004DB203A00FA02F1002070479140C2F109
:10067000200320FA03F3194390407047202A04DB3B
:10068000203A21FA02F00021704721FA02F3D0400B
:10069000C2F120029140084319467047064C074DAD
:1006A00006E0E06840F0010394E807009847103442
:1006B000AC42F6D3FFF794FDC8900008E89000081C
:1006C00070B58C1810F8015B15F0070301D110F814
:1006D000013B2A1106D110F8012B03E010F8016B41
:1006E00001F8016B5B1EF9D12B0705D40023521EC4
:1006F0000DD401F8013BFAE710F8013BCB1A921C2C
:1007000003E013F8015B01F8015B521EF9D5A14229
:10071000D8D3002070BD10B54FF0A0414020086034
:1007200006F0B0FABDE8104007F0F2BA10B4024685
:1007300008460FFA81FC1CFB0CF40B1413FB03415D
:10074000148864438C4224BF10BC704792F8B240B6
:10075000C4EB1161C9B202EB41018A8810BC0CFBE9
:1007600002F14FEAE17C01EB5C41C91361F30F0038
:1007700003FB02F1CA1701EB5241C91361F31F4099
:100780007047000010B590F83010094C002207F0B7
:100790003DFB210101FA80F1064802686FF30F1258
:1007A00011430160606840F00100606010BD00000E
:1007B000000800500C080050084490F830007047C2
:1007C00000EB4100B0F932007047000002480168B8
:1007D00041F001010160704700080050084480F8B2
:1007E0003020704700EB410042867047828901212A
:1007F0003AB1521E1204120C828106BF012282738A
:10080000002108467047C07B70478360C0E9001232
:1008100000218173C1737047807B7047C17370473B
:1008200010B5044600224068114607F0E6FEB4F910
:100830001410606807F01FFF0021206805F0E4FD38
:1008400000221146206805F060FDE28AB4F912101A
:10085000206805F05AFDE08A218A48434FF47A71F6
:10086000B0FBF1F0401CA08110BD000011494FF613
:10087000FF72CA60C968B0F87020C1F30C018A42E7
:10088000C4BFB0F868301944891AB0F86820C1EBC9
:10089000014191FBF2F1C388C180427812FB01F261
:1008A00012B28280C91A836809B213FA81F1816099
:1008B00010467047003001402DE9F041684A044677
:1008C0000F46906810F0010F04D0D068C0F30C0000
:1008D000A4F86E000026634DB44631464FF6FF7013
:1008E000AE61936813F0010F08D1D060936813F0E4
:1008F000800FFBD1936813F0010FF6D0D368C3F3D8
:100900000C0319440CF1010303F0FF0CBCF1060FBA
:10091000E7D355484FF00108A0FB01108008A861FB
:1009200080B2A4F86A00A4F86E006978B1B1B4F896
:100930007220B4F868305A4352004EF6602392FB9E
:10094000F3F2A4F86620A4F87000A4F86E60A4F88E
:100950006C60481E687084F8778079E0B4F8701095
:1009600081429CBF401AA4F86E0005D9B4F86820F3
:100970001044401AA4F86E000004000C04BF3B4869
:1009800005F05CFEB4F86E10B4F86C0081422CBF28
:100990000A1A421AAA80B4F8663092B293420BD275
:1009A0008142B4F868002CBF101A801A94F87810AD
:1009B00004EB8101086205E0081A94F8781004EB52
:1009C00081010862B4F86E00A4F86C0094F8780015
:1009D000B4F8641004EB8000B4F86820006A48435F
:1009E0006178484390FBF2F0E1694843618B90FBEA
:1009F000F1F02861E08194F87800401C84F87800D8
:100A000094F8781094F87400814224BF84F87860D8
:100A100085F8008001D22978D1B1EE60AE7000284F
:100A20000AD9A97804EB8103491C1B6AC9B21E4488
:100A3000A9708842F5D8EE60216EEB6850435943A7
:100A4000686191FBF0F02861A189411A6182A0815F
:100A5000A089388039462046BDE8F04105F0EFBB5B
:100A60000030014024070020ABAAAAAAE40100201C
:100A7000002190F874300A46002B08D900EB81035E
:100A8000491C1A6290F87430C9B28B42F6D8B0F89B
:100A90006E10B0F87030194489B2A0F86E10B0F83A
:100AA0006830994205D9B1FBF3FC03FB1C11A0F897
:100AB0006E10A0F87010A0F86E20A0F86C20012134
:100AC000826080F876107047B0F8641001EB810105
:100AD0004900016690F874200021002A8CBF002391
:100AE000704700BF00EB810C491CC9B2CCF8203024
:100AF0008A42F7D87047C180427812FB01F28280A7
:100B00004FF6FF730029B8BF494289B2B8BF591ADE
:100B1000B0F86820B0F870C05143B1FBF3F1B0F801
:100B20006E3089B263449BB2A0F86E30934205D90F
:100B3000B3FBF2FC02FB1C33A0F86E309BB28B427D
:100B40008EBF5A1A1A44521AA0F87020A0F86E10DC
:100B5000A0F86C10704700000548016811F4806F20
:100B600008BF70474FF48061016007F065BB00006B
:100B700014040140002190B1437801780022194407
:100B8000002B09D900EB020C521C9CF802C0D2B217
:100B9000614489B29342F5D801EB1120C1B20846F5
:100BA0007047002141820175417580F8961080F8E8
:100BB000971080F8981080F8991080F89A1080F8B3
:100BC0001B1180F81C1180F81D117047DDF800C062
:100BD000002818BF80E80E107047000000EB4001AD
:100BE00001EB001210B5084901EB420494F82410FF
:100BF000002918BF10BD054951F8200005F04FFB32
:100C0000E083208210BD0000C40A0020B806002046
:100C100010B5044600EB440000EB0412124800211A
:100C200000EB4202114811605160D1601161D18323
:100C3000C2F81610C2F81A10118450F8240004F0FB
:100C400050F80B48002150F8240004F04AF80948F5
:100C500050F8240005F051FB074850F82400BDE887
:100C6000104004F0C7B90000C40A0020C0060020EC
:100C7000C4060020B8060020DC06002070470000F3
:100C800001004FF0000004BF0148006870470000F9
:100C9000B40600202DE9F00782B00023009390F8FD
:100CA00058409C461A46012C01BF022002B0BDE804
:100CB000F0077047012480F858404669FD4D002E2A
:100CC0001CBF0E6A012E02D0876EDFB129E04A6890
:100CD000092A3BD18A6A4FF47856002A04BF0A6871
:100CE00006EA524207D00F6802F07C0206EA574635
:100CF0003243CE6A32430668F76C3D401543F564D3
:100D0000426623E0C0E919C68A6A002A04BF0A6A5B
:100D1000521E06D00E6A02F07C02761E3243CE6A64
:100D200032430E680F79C6F3846607F01F07BE4092
:100D30003243866E761E8666476E47EA0202426638
:100D400004D10668F76C3D402A43F2640268956856
:100D500015F0080F0AD191F82550B5B1D56891F872
:100D6000266025F4401545EA4655D5600268956829
:100D70009668C5F38005C6F3C00655EA06074FF02E
:100D800004054FF007060CD07DE091F8265091F84D
:100D900024606D0545EA0655D66826F440163543AD
:100DA000E3E78F6A002F1CBFCF6A002F91F82570F0
:100DB00073D0012F1CBFD76827F0007777D0D7609A
:100DC00091F83020012A79D00268176927F00207CC
:100DD00017618A68B2F1004F7DD0D1F800800768B2
:100DE00005EAD8594F44D7F81490C8F3045806FAC6
:100DF00008FA29EA0A0902FA08F249EA02027A61C3
:100E00000268576927F00047576102684F69D2F8B6
:100E10000C80C8F3C1084FEA480807FA08F80F69C0
:100E2000042F72D002EB8702D1F80090176EDFF822
:100E300088A209F0F84907EA0A0749EA080847EAD8
:100E4000080747F000471766D0F800800A698F69E5
:100E500008EB8202D2F8608028F0807848EA070721
:100E600017660F7FD0F800800A69012F0CBF4FF082
:100E70000077002708EB8202D2F8608028F0007823
:100E800048EA070717660268976817F0010F40F0F5
:100E90007181C9E001E00AE010E0012FD7680EBFC0
:100EA00047F0007727F00077D76089D187E7C26DD8
:100EB00042F02002C265012382E70CE0D1E90D2750
:100EC00017430268D2F8108028F4FF7848F002082F
:100ED00047EA08077CE70F68026805EAD7594A44E1
:100EE0004FF00008D2F81490C7F3045706FA07FA37
:100EF00029EA0A0908FA07F749EA07075761026869
:100F0000576947F000477FE7FFE7176E00277F0329
:100F10007F0B7CD0176E07F0F84797FAA7F7B7FA60
:100F200087F80F68C7F31209B9F1000F0EBFC7F3B6
:100F3000846797FAA7F7B7FA87F7B84503D1176E12
:100F400027F0004717660268576E0027121D7F03BF
:100F50007F0B176E07F0F8470EBF4FEA976897FAB6
:100F6000A7F7B7FA87F80F68C7F31209B9F1000FAE
:100F70000EBFC7F3846797FAA7F7B7FA87F7B845A4
:100F800003D1176E27F0004717660268976E002797
:100F900008327F037F0B176E07F0F8470EBF4FEA4A
:100FA000976897FAA7F7B7FA87F80F68C7F3120997
:100FB000B9F1000F0EBFC7F3846797FAA7F7B7FA26
:100FC00087F7B84503D1176E27F000471766026808
:100FD000D76E00270C327F037F0B176E07F0F847A0
:100FE0000EBF4FEA976897FAA7F7B7FA87F80F6826
:100FF000C7F31209B9F1000F0EBFC7F3846797FA60
:10100000A7F7B7FA87F7B84508BF176E00E005E005
:1010100008BF27F000477FF436AF33E7176E07F0BD
:10102000F8474FEA97687CE791F80C800F68D2F890
:10103000B090C7F3120A29EA0A09DFF880A008F085
:1010400018082AFA08F808EA070749EA0707C2F861
:10105000B070CA68A2F18047B7F5FE077ED10A6872
:10106000076812EA0A081ABF92FAA2F8B8FA88F8D2
:10107000C2F3846808F1010808F01F08B8F1090FED
:10108000C2F3120832D8B8F1000F1ABF92FAA2F8D0
:10109000B8FA88F8C2F3846808F1010808F01F085C
:1010A00004FA08F80EBFC2F3846492FAA2F4B4FA08
:1010B00084F405E00040100400F0FF03FFFF070088
:1010C00004F1010404F01F0448EA84640EBFC2F373
:1010D000846292FAA2F2B2FA82F202F1010202F002
:1010E0001F0202EB420244EA025230E0B8F1000F64
:1010F0000EBFC2F3846892FAA2F8B8FA88F808F131
:10110000010808F01F0804FA08F80EBFC2F384644F
:1011100092FAA2F4B4FA84F404F1010404F01F0476
:1011200048EA84640EBFC2F3846292FAA2F2B2FA71
:1011300082F202F1010202F01F02DFF8288102EBC5
:10114000420208EB025244EA020242F0007205EA4F
:10115000D2543C44D1F80880656900E00AE0C2F34B
:10116000045206FA02F625EA060508FA02F245EAF2
:10117000020262610C683C490C4267D04FF0A0410A
:10118000D1F8081304F1705501F0E072374915F5F4
:101190005F051ABF364DAC4212F4000F11D0354D29
:1011A00004F1605616F52E0608BF12F0807F38D085
:1011B00004F1505616F5F80608BF12F4800F3BD024
:1011C00044E00468B4F1A04F40D18C6842F40002BE
:1011D00024F0E07422438A602749284A0968B1FB59
:1011E000F2F101EB41018900009101912ED0B1F1A2
:1011F000004F32D20029D8BF002105DD11F00101D6
:1012000002D0009A521E0092019A491C521C91422F
:101210001CDA009C891C641E641E00949142F8DB59
:1012200014E00468AC4211D08C6842F0807224F063
:10123000E07422438A6009E00468AC4206D08C68FE
:1012400042F4800224F0E07422438A6080F858C09F
:1012500002B01846BDE8F00770470099491E00919A
:10126000FCD1F3E7000020FE0000088000030050DE
:101270001000C0900001005020070020400D030026
:1012800090F858204FF0000C012A04BF022070474C
:1012900070B49BB0012280F8582002680024B2F19B
:1012A000A04F0AD0C16D41F02001C16580F85840BF
:1012B0001BB04FF0010070BC7047274B00939B6838
:1012C0009268C3F3800312F0040F08BF002B0BD009
:1012D000C16D41F02001C1654FF0010C80F858400C
:1012E0001BB0604670BC70471C4A0D684FF0A043AD
:1012F000FDB1956890F8386025F4604545EA4635BB
:101300004E6845EA060595609D68D3F8083145EAC0
:10131000030313F0010FE1D10B68896843EA01016F
:10132000936823F01F0323F4706341EA0301916083
:10133000D4E7916821F4604191609968D3F808314D
:1013400041EA030111F0010F02BF916821F01F0172
:1013500021F47061C2D1EAE700010050000300509F
:101360002DE9F00785B00023019390F858209C46A2
:10137000012A01BF022005B0BDE8F0077047012433
:1013800080F858400268956815F0040F0BD0C16DC5
:1013900041F02001C165012380F858C005B018460E
:1013A000BDE8F0077047D1E900650C2707EA9517FB
:1013B0003A44176B05F01F054FF01F0808FA05F8AF
:1013C000C6F3846627EA080706FA05F53D43156368
:1013D000026895689668C5F38005C6F3C00655EAAD
:1013E00006074FF004054FF0070658D18F68B7F194
:1013F000004F5BD0D1F8008005EAD8594A44D2F8B2
:101400001490C8F3045806FA08FA29EA0A0907FAF8
:1014100008F749EA070757610268576927F000474C
:10142000576102684F69D2F80C80C8F3C1084FEACF
:10143000480807FA08F80F69042F4FD002EB87021B
:10144000D1F80090176EDFF8C4A309F0F84907EA55
:101450000A0749EA080847EA080747F000471766FD
:10146000D0F800800A698F6908EB8202D2F86080A8
:1014700028F0807848EA070717660F7F0268D1F8DE
:101480001080012F0CBF4FF00077002702EB88027D
:10149000D2F8608028F0007848EA070717660268EB
:1014A000976817F0010F40F039819FE00F684FF007
:1014B000000805EAD7594A44D2F81490C7F30457F4
:1014C00006FA07FA29EA0A0908FA07F749EA0707B4
:1014D00057610268576947F00047A1E7176E002778
:1014E0007F037F0B176E07F0F8471ABF97FAA7F72D
:1014F000B7FA87F84FEA97680F68C7F31209B9F18E
:10150000000F0EBFC7F3846797FAA7F7B7FA87F7FC
:10151000B84503D1176E27F0004717660268576E6B
:101520000027121D7F037F0B176E07F0F8470EBFD1
:101530004FEA976897FAA7F7B7FA87F80F68C7F3E3
:101540001209B9F1000F0EBFC7F3846797FAA7F726
:10155000B7FA87F7B84503D1176E27F0004717662B
:101560000268976E002708327F037F0B176E07F023
:10157000F8470EBF4FEA976897FAA7F7B7FA87F8C8
:101580000F68C7F31209B9F1000F0EBFC7F38467E4
:1015900097FAA7F7B7FA87F7B84503D1176E27F080
:1015A000004717660268D76E00270C327F037F0B57
:1015B000176E07F0F8470EBF4FEA976897FAA7F73C
:1015C000B7FA87F80F68C7F31209B9F1000F0EBF19
:1015D000C7F3846797FAA7F7B7FA87F7B84504BF48
:1015E000176E27F000477FF45AAF57E791F80C8049
:1015F0000F68D2F8B090C7F3120A29EA0A09DFF897
:1016000010A208F018082AFA08F808EA070749EAB9
:101610000707C2F8B070CA68A2F18047B7F5FE07A5
:101620007CD10A68D0F8008012EA0A071ABF92FA41
:10163000A2F7B7FA87F7C2F384677F1C07F01F078A
:10164000092FC2F312072AD8002F1ABF92FAA2F765
:10165000B7FA87F7C2F3846707F1010707F01F079E
:1016600004FA07F70EBFC2F3846492FAA2F4B4FA44
:1016700084F404F1010404F01F0447EA84640EBFFB
:10168000C2F3846292FAA2F2B2FA82F202F1010289
:1016900002F01F0202EB420244EA02522EE0002F47
:1016A0000EBFC2F3846792FAA2F7B7FA87F707F181
:1016B000010707F01F0704FA07F70EBFC2F384649F
:1016C00092FAA2F4B4FA84F404F1010404F01F04C1
:1016D00047EA84640EBFC2F3846292FAA2F2B2FABD
:1016E00082F202F1010202F01F024A4F02EB4202B3
:1016F00007EB025244EA020242F0007205EAD254B9
:1017000044448F686569C2F3045206FA02F625EA7A
:10171000060507FA02F245EA020262610C683E49D8
:101720000C423FF439AE4FF0A041D1F8081304F158
:10173000705501F0E072394915F55F051ABF384D53
:10174000AC4212F4000F1DD0364D04F1605616F570
:101750002E0608BF12F0807F47D004F1505616F5D0
:10176000F80608BF12F4800F7FF416AE0468AC428E
:101770003FF412AE8C6842F4800224F0E0742243FD
:101780008A6009E60468B4F1A04F7FF405AE8C6866
:1017900042F4000224F0E07422438A602249234A82
:1017A0000968B1FBF2F101EB41018900019100915F
:1017B0003FF4F2ADB1F1004F23D20029D8BF002190
:1017C00005DD11F0010102D0019A521E0192009A2A
:1017D000491C521C9142BFF6DFAD019C891C641E5E
:1017E000641E01949142F8DBD6E50468AC423FF4F4
:1017F000D3AD8C6842F0807224F0E07422438A609A
:10180000CAE50199491E0191FCD1C5E500F0FF032D
:10181000FFFF0700000020FE0000088000030050CA
:101820001000C0900001005020070020400D030070
:1018300070B584B04FF0000504002E46029502BF3B
:10184000012004B070BDE06D28B9204600F00EF90B
:10185000266684F8586020688168C1F3407129B118
:10186000816821F03F0121F020418160206881687A
:10187000C1F3007149BB816821F03F0121F00041B3
:1018800041F080518160744874490068B0FBF1F008
:1018900002900090C8B1B0F1004F80F0D7800028CE
:1018A000D8BF002005DD10F0010002D00299491ECA
:1018B00002910099401C491C884206DA029A801C59
:1018C000521E521E02928842F8DB20688168C1F3E2
:1018D000007141B9E16D41F01001E165216E41F007
:1018E0000101216601258168E26DC1F3800112F0DA
:1018F000100F08BF002908D0E06D40F01000E0652F
:101900004FF0010504B0284670BDE16D21F48071EF
:1019100041F00201E165806810F0010F11D14FF034
:10192000A0408168D0F8080141EA000010F0010FE2
:1019300007D14B486168826822F47C1242EA0101B7
:101940008160E168E06B627F40EA0100A16841EAE2
:10195000423140EA010094F8241040EA0140012994
:1019600004D1218D3F4A02EB41410843E16A21B194
:1019700001F47871226B084310432168CA683A4B1E
:101980001A401043C86020680169626B21F0406111
:1019900011430161206881688268C1F38001C2F34C
:1019A000C00211432FD1217F94F83820890341EAE6
:1019B0004201C26822F0020222F480421143C16057
:1019C00020690028206801690AD041F48031016152
:1019D0002068D0F8C01022696FF30D01114307E0B1
:1019E00021F4803101612068D0F8C0106FF30D013F
:1019F000C0F8C01094F8400001280CD0206801699C
:101A000021F001010161606901282068016B21F06A
:101A10000F0113D10FE0D4E911010843D4E91312E7
:101A2000114340EA0102206801696FF38A01114302
:101A300041F00101E6E7226A521E11430163E06DA5
:101A400020F0020040F00100E0655BE70298401ED4
:101A50000290FCD139E7000020070020400D030070
:101A6000000300500000FEFF0740F0FF30B587B0D4
:101A700000252F4A0095019502950395049503686A
:101A800010680324411C2B48B3F1A04F0AD0A3F1E6
:101A9000A04CBCF5807C1CBF07B030BD1160012993
:101AA00033D12AE01160012907D1C16C41F4005102
:101AB000C164C16C01F400510591C16C41F0010198
:101AC000C164C16C01F001010591C16C41F00201DA
:101AD000C164C06C694600F0020005900520CDE9A4
:101AE00000044FF0904000F0B3FA44F20200CDE958
:101AF000000469460295104815E0C16C41F400519C
:101B0000C164C16C01F400510591C16C41F0010147
:101B1000C164C06C694600F0010005904020CDE929
:101B200000044FF0904000F093FA07B030BD000081
:101B300010070020001002400004004830B50400E7
:101B400085B04FF000000546019004D02168096877
:101B500011F0004F01D001259CE0617F21B9207771
:101B60002062204600F0B0F820680168D4F80CC06C
:101B700001F40002D4E901311943636943EA0C031B
:101B80001943236919430368DFF81CC103EA0C03F6
:101B9000194301602168086810F4000F24D01ABBB3
:101BA0004248434A0068B0FBF2F000EB800080003E
:101BB0000190009018D0B0F1004F6FD20028D8BF2C
:101BC000002005DD10F0010002D0019A521E0192A2
:101BD000009A401C521C904206DA019B801C5B1E3E
:101BE0005B1E01939042F8DBA1F18040B0F581309B
:101BF00008BF4FF400110CD02E48814208BF4FF4AB
:101C0000800106D02C4881420CBF4FF000514FF0AC
:101C10008041A369294A13F0030FA2F104002DD0DB
:101C200013F0100F02F10403D3F800C00CBF2CEA2C
:101C3000010C4CEA010CC3F800C0237E13F0200F06
:101C40001F4BD3F800C014BF4CEA010C2CEA010C66
:101C5000C3F800C01B4B1960237E13F0020F1368FA
:101C600014BF0B438B431360227E12F0010F0268F6
:101C700014BF114322EA0101016006E013688B439F
:101C80001360026822EA01010160607F002804BF3E
:101C900001206077284605B030BDFFE70198401E5F
:101CA0000190FCD1A0E700000F7E00FF200700207C
:101CB000400D0300040201400802014004040140F9
:101CC0000C0401401404014000B587B000210091CC
:101CD0000191029103910491026820480321A2F12D
:101CE0008043B3F5813314D01D4B9A4220D1C26C8E
:101CF00042F00102C264C06C00F001000590802037
:101D0000CDE9000169464FF0904000F0A1F907B01D
:101D100000BDC26C42F00102C264C06C00F0010060
:101D200005900220CDE9000169464FF0904011E096
:101D30000C4B9A421CBF07B000BDC26C42F00202BD
:101D4000C264C06C00F0020005900120CDE90001E2
:101D50006946054800F07CF907B000BD001002405C
:101D6000040201400C02014000040048002804BFA6
:101D70000120704770B5044690F82100002520B975
:101D800084F82050204600F00BF865626560A5607D
:101D9000E56025610120656184F82100002070BDA7
:101DA000006881B0A0F18041B1F503311CBF01B0E2
:101DB00070470548816C41F008018164806C00F037
:101DC0000800009001B07047001002402DE9F04774
:101DD000044640790D46012804BF0220BDE8F08783
:101DE0004FF0010884F8058002202071A86802F0F5
:101DF000100604284DD14FF0030992B12068406BC2
:101E000010F0004F2CD000BF00F034FA012822D986
:101E1000206940F00800206184F804900320BDE8A8
:101E2000F08700F027FA07462068406B10F4004F57
:101E30000AD000BF00F01EFAC01B0128E8D82068B5
:101E4000406B10F4004FF5D1012000F0EDF821684F
:101E5000686A08640AE02068406B10F0004FD3D134
:101E6000012000F0E1F82168686A48642068816C0C
:101E700040F2FF32B2409143AA6AB24011438164FA
:101E80002068C16CFF22B2409143EA6AB24011431C
:101E9000C164E869012808D12168886B1F22B2401B
:101EA00090432A6AB240104388632068C06B0721C0
:101EB000B14020EA0101A86910F0010F05D110F02E
:101EC000020F5AD16869002857D000206B69AA68B0
:101ED0001A4302434FF48070B04021EA0000297990
:101EE00001290CBF4FF48071002111434FF400729F
:101EF000B24090436A79012A0CBF4FF4007200226D
:101F000042EA010920F440472868022818BF074325
:101F100035D000BF216809FA06F03843C86320684D
:101F200001684FF48042B240914301602168086823
:101F300040F6FE72B2409043EA68B2401043086037
:101F400020680168C022B24091430160287B297C4F
:101F5000C0F3830001F03C0140EA811021680A6E61
:101F600040F60F73B3409A43B0401043086684F8BC
:101F7000048000206071BDE8F0870120A6E700F032
:101F8000BBFD0649884288BF47F40047C2D80449D0
:101F9000884288BF47F48047BCE700000068890991
:101FA00000B4C404002804BF0120704770B5044683
:101FB0000079002518B96571204600F007F8022065
:101FC0002071256101202071002070BD00B587B00F
:101FD0000021009101910291039104910068A0F108
:101FE000A041B1F500611CBF07B000BD0D48C16C38
:101FF00041F48031C164C16C01F480310591C16C40
:1020000041F00101C164C06C694600F00100059017
:1020100010200090032001904FF0904000F018F83D
:1020200007B000BD0010024070B5044600F022F970
:102030000546B4F1FF3F02D004484068044400F074
:1020400019F9401BA042FAD370BD0000140700200C
:102050000B680022002B08BF70472DE9F84F804E17
:10206000DFF800E201274FF0030A4FF00F0800BF2E
:102070000B6807FA02F52B4000F0EB80D1F804C0A2
:10208000BCF1020F18BFBCF1120F15D14FEAD20CF0
:1020900000EB8C04D4F820904FEA427C4FEADC6CD1
:1020A00008FA0CFB29EA0B09D1F810B00BFA0CFC6A
:1020B0004CEA090CC4F820C0D0F800904FEA420C5A
:1020C00091F804B00AFA0CF40BF0030B29EA0409A6
:1020D0000BFA0CFB4BEA0909C0F80090D1F8049008
:1020E000B9F1010F18BFB9F1020F05D0B9F1110F05
:1020F00018BFB9F1120F18D1D0F80890D1F80CB070
:1021000029EA04090BFA0CFB4BEA0909C0F808900C
:10211000D0F8049029EA050591F80490C9F3001954
:1021200009FA02F949EA05054560C56825EA04048B
:102130008D6805FA0CFC4CEA040CC0F80CC0D1F810
:1021400004C01CF0805F7CD0D6F860C04CF0010C5D
:10215000C6F860C0D6F860C00CF0010CCDF800C025
:1021600022F0030C0CF1804404F58034A5684FEA9A
:10217000827C4FEA1C7C08FA0CF925EA0905B0F1CB
:10218000904F08BF4FF0000928D0A0F19049B9F551
:10219000806908BF4FF0010920D0A0F19049B9F53E
:1021A000006908BF4FF0020918D0A0F19049B9F5B5
:1021B000406908BF4FF0030910D0A0F19049B9F56C
:1021C000805908BF4FF0040908D0A0F19049B9F533
:1021D000A0590CBF4FF005094FF0060909FA0CFC95
:1021E0004CEA050CC4F808C0DEF800C04C682CEAC4
:1021F000030C14F4803F18BF4CEA030CCEF800C067
:10220000194CD4F800C04D682CEA030C15F4003FBB
:1022100018BF4CEA030CC4F800C0144CD4F800C03A
:102220004D682CEA030C15F4801F18BF4CEA030C10
:10223000C4F800C00E4CD4F800C04D682CEA030C62
:1022400000E006E015F4001F18BF4CEA030CC4F8C8
:1022500000C00B68521CD3407FF40AAFBDE8F88F72
:102260000010024000040140040401400804014041
:102270000C040140014880687047000014070020EA
:102280000248816842681144816070471407002049
:1022900010B50024032000F08FF8042000F008F8A7
:1022A000002814BF012400F025F8204610BD0000CE
:1022B00070B50E4E05460024706898B14FF47A71DF
:1022C000B1FBF0F00A490968B1FBF0F000F082FFC1
:1022D00040B9102D06D200222946501E00F03AF8CF
:1022E000356000E00124204670BD00001407002086
:1022F000200700200D4808B5016E41F0010101667C
:10230000016E01F001010091816D41F08051816504
:10231000806D00F080500090042000F04DF80448DB
:10232000816821F48041816008BD000000100240F6
:10233000007000400028B8BF704700F01F01012264
:1023400002FA01F14009800000F1E020C0F800111C
:1023500070470000174B10B41B68C3F30223C3F18E
:10236000070CBCF1040F88BF4FF0040C1C1D072C98
:1023700034BF0023DB1E012404FA0CFCACF1010C79
:102380000CEA0101994004FA03F35B1E1A40114361
:1023900000284FEA0111A1BF00F1E02080F80014ED
:1023A00010BC704700F00F0000F1E02080F8141D11
:1023B00010BC70470CED00E0074900F007000A6808
:1023C0004FF6FF031A4042EA002040F0FD7040F053
:1023D00080600860704700000CED00E038B5040034
:1023E0004FF000051FBF94F83A00052894F83A0012
:1023F000022804BF012038BD3148016E41F00101BF
:102400000166006E00F00100009094F83A00002888
:1024100004BF002084F83900204600F055F8A16878
:102420002848402918BF602921680A68E36A22F019
:10243000100242EA03020A60D4E9011241EA0201F1
:1024400022D0D4E9032342EA030241EA0201227DB9
:10245000012A0CBF4FF4807200221143626A1143BB
:10246000A26A1143228E41EAC24194F8342041EA23
:10247000026221680B681840104308602068816977
:1024800011F0004F13D108E0237D2269012B0CBF0E
:102490004FF4807300231A43DFE7D4E90612114397
:1024A000226A836923F03F031A431143816194F840
:1024B0003A00002804BF012084F83A00284638BDBD
:1024C00000100240113E00E000B587B000210091ED
:1024D00001910291039104911F4B02681F4803214F
:1024E0009A420ED1C26C42F00102C264C06C00F08C
:1024F000010005900E20CDE9000169464FF09040A3
:1025000026E0174B9A4211D1C26C42F00102C2641C
:10251000C06C00F001000590E020CDE900016946A3
:102520004FF09040FFF794FD07B000BD0D4B9A426D
:102530001CBF07B000BDC26C42F00202C264C06C96
:1025400000F0020005900720CDE900016946064829
:10255000FFF77EFD07B000BD000301400010024000
:102560000403014008030140000400482C493222C2
:102570002C4B09684A432C4950B1B0F5007F0868DC
:102580002BD020F4C06040F48060086000207047C9
:10259000086800F4C060B0F5806FD1F8800020F4C6
:1025A000807002D0C1F88000F0E7C1F880000868B0
:1025B00020F4C06040F400700860B2FBF3F000F15A
:1025C00001004A6912F4806F1CBF0028401EF8D138
:1025D000486910F4806F20D1D8E700F4C060B0F5EE
:1025E000806FD1F8800040F48070DBD1C1F88000AA
:1025F000086820F4C06040F400700860B2FBF3F09B
:1026000000F101004A6912F4806F1CBF0028401ECF
:10261000F8D1486910F4806FB8D04FF003007047CC
:102620002007002040420F00007000402DE9F843D1
:10263000044600680027AC4D10F4002F6DD0A86D43
:102640004FF0000810F0805F09D1A86D40F0805075
:10265000A865A86D4FF0010800F080500090DFF8E9
:102660008C92D9F8000040F48070C9F80000FFF7A0
:1026700001FE0646D9F8000010F4807F0AD100BFA1
:10268000FFF7F8FD801B022831D8D9F8000010F4BC
:10269000807FF5D0D5F8900010F440701CBF216CFD
:1026A000814211D0D5F89000D5F8901020F44070F8
:1026B00041F48031C5F89010D5F8901021F48031A4
:1026C000C5F89010C5F8900010F0010F16D0FFF774
:1026D000D1FD0646D5F8900010F0020F08BF41F278
:1026E00088390BD1FFF7C6FD801B484501D9032768
:1026F0000CE0D5F8900010F0020FF3D0D5F8900060
:10270000216C20F440700843C5F89000B8F1000F28
:1027100003D0A86D20F08050A865207810F0010F3C
:1027200007D0D5F88800616820F003000843C5F899
:102730008800207810F0020F07D0D5F88800A16833
:1027400020F00C000843C5F88800207810F0040F32
:1027500007D0D5F88800E16820F030000843C5F8BC
:102760008800207810F0080F07D0D5F8880021697C
:1027700020F0C0000843C5F88800207810F0200F32
:1027800007D0D5F88800616920F440600843C5F897
:102790008800207810F0400F07D0D5F88800A16994
:1027A00020F440500843C5F88800207810F0800FCE
:1027B00007D0D5F88800E16920F440400843C5F807
:1027C0008800208810F4807F07D0D5F88800216A1F
:1027D00020F440300843C5F88800208810F4007FBA
:1027E00007D0D5F88800616A20F440200843C5F876
:1027F0008800208810F4806F0FD0D5F88800A16A77
:1028000020F440100843C5F88800A06AB0F5801F86
:1028100003D1E86840F48010E860208810F4006F6D
:102820000FD0D5F88800E16A20F440000843C5F8CD
:102830008800E06AB0F5800F03D1E86840F48010AA
:10284000E860208810F4805F0FD0D5F88800216BF5
:1028500020F040700843C5F88800206BB0F1807FFD
:1028600003D1E86840F48010E860208810F4005F2D
:102870000FD0D5F88800616B20F040600843C5F8A0
:102880008800606BB0F1006F03D1E86840F48010FD
:10289000E860208810F4804F0FD0D5F88800A16B35
:1028A00020F040600843C5F88800A06BB0F1006FCD
:1028B00003D1E86840F48010E860208810F4004FED
:1028C0000FD0D5F88800E16B20F040500843C5F8E0
:1028D0008800E06BB0F1805F03D1E86840F480309D
:1028E000E8603846BDE8F883001002400070004000
:1028F0002DE9F0470E4605004FF000087ED0764FD8
:10290000386800F00F00864209D9386820F00F00BF
:1029100030433860386800F00F00B0426ED129684B
:102920006E4C11F0010F41F2883A66D06868DFF80A
:10293000B091032806D00228206832D010F4806FAE
:102940005CD031E0206810F0007F57D0E06800F0E4
:102950000302E068C0F30310401C032A19D0614A47
:10296000B2FBF0F0E268C2F306225043E268C2F321
:102970004162521C5200B0FBF2F0484520D9A068D9
:1029800010F0F00F14D011F0020F19D0A86878B130
:1029900016E0554AB2FBF0F0E268C2F3062250435B
:1029A000E4E710F4003F60D000F0D0F8484507D9C4
:1029B000A06820F0F00040F08000A0604FF0800898
:1029C000A068696820F003000843A060FFF752FC8C
:1029D0008146A068696800F00C00B0EB810F0CD054
:1029E000FFF748FCA0EB090050453BD8A068696898
:1029F00000F00C00B0EB810FF2D100E035E0286868
:102A000010F0020F34D010F0040F03D0A06840F48F
:102A1000E060A060287810F0080F05D0A06820F4CE
:102A2000605040F4E060A060A068A96820F0F00069
:102A30000843A060386800F00F00B04225D938681C
:102A400020F00F0030433860FFF714FC80463868F0
:102A500000F00F00B04218D0FFF70CFCA0EB08000C
:102A600050450DD90320BDE8F0870120BDE8F0876F
:102A7000B8F1800F04BFA06820F0F000DAD1D8E7E9
:102A8000386800F00F00B042E6D1287810F0040F4B
:102A900005D0A068E96820F4E0600843A0602878C9
:102AA00010F0080F06D0A068296920F4605040EAB1
:102AB000C100A06000F04AF8A1680C4AC1F30311FC
:102AC000515C01F01F01C8400949086009480068CD
:102AD000BDE8F047FFF7ECBB0020024000100240C9
:102AE00000B4C4040024F40000127A00949000089A
:102AF00020070020140700200148006870470000EC
:102B0000200700200548064900688968054AC1F386
:102B10000221515C01F01F01C840704720070020CE
:102B200000100240A4900008054806490068896822
:102B3000054AC1F3C221515C01F01F01C840704732
:102B40002007002000100240A4900008184988685F
:102B500000F00C021748042A08BF70478A6802F088
:102B60000C03154A082B04BF104670478B684FF0C2
:102B70000C0C3CEA03031CBF00207047CB6803F039
:102B8000030CCB68C3F303135B1CBCF1030F14BF2E
:102B9000B0FBF3F0B2FBF3F0CA68C968C2F30622D7
:102BA0005043C1F34161491C4900B0FBF1F070474B
:102BB000001002400024F40000127A00002804BF34
:102BC000012070472DE9F84305460078FF4F10F0CB
:102BD000010F55D0B868F96800F00C0001F003014E
:102BE0000C2802D0082820D001E003291DD06868F5
:102BF000B0F5803F22D0B0F5A02F38680CBF40F46C
:102C0000802020F48030386038680CBF40F4803079
:102C100020F480203860686800B3FFF72BFB04467F
:102C2000386810F4003F0ED02AE0386810F4003FF6
:102C300026D06868002800F0208221E0386840F43F
:102C400080303860E7E7FFF715FB001B642800F2CF
:102C50008481386810F4003FF5D011E0FFF70AFBDB
:102C60000446386810F4003F0AD000BFFFF702FBAB
:102C7000001B642800F27181386810F4003FF5D120
:102C8000287810F0020F58D0B86800F00C01F868EE
:102C90000C2900F0030002D0042911D001E0022821
:102CA0000ED0E8680028386833D040F4807038606F
:102CB000FFF7E0FA0446386810F4806F17D020E080
:102CC000386810F4806F03D0E868002800F0D581E0
:102CD0007868297C20F0FE4040EA01607860BC48BA
:102CE0000068FFF7E5FA002840F0C78125E0FFF70C
:102CF000C1FA001B022800F23081386810F4806F9E
:102D0000F5D07868297C20F0FE4040EA01607860C8
:102D100013E020F480703860FFF7ACFA044638689E
:102D200010F4806F09D000BFFFF7A4FA001B02283F
:102D30007ED8386810F4806FF6D1287810F0080F2C
:102D400032D068690028D7F8940016D040F001000E
:102D5000C7F89400FFF78EFA0446D7F8940010F0F5
:102D6000020F21D1FFF786FA001B022860D8D7F89E
:102D7000940010F0020FF5D016E020F00100C7F823
:102D80009400FFF777FA0446D7F8940010F0020F8A
:102D90000AD000BFFFF76EFA001B022848D8D7F808
:102DA000940010F0020FF5D1287810F0040F78D0BD
:102DB000B86D4FF0000810F0805F09D1B86D40F099
:102DC0008050B865B86D4FF0010800F08050009059
:102DD000804E306810F4807F13D1306840F48070EA
:102DE0003060FFF747FA0446306810F4807F08D15E
:102DF000FFF740FA001B02281AD8306810F4807FD1
:102E0000F6D0A868012821D00528D7F890000CBF7B
:102E100040F0040020F00100C7F89000D7F89000BF
:102E20000CBF40F0010020F00400C7F8900000E063
:102E300093E0A86841F28836D0B1FFF71BFA044648
:102E4000D7F8900010F0020F07D023E0D7F89000D9
:102E500040F00100C7F89000E9E7FFF70BFA001B0C
:102E6000B0427AD8D7F8900010F0020FF5D011E0F8
:102E7000FFF700FA0446D7F8900010F0020F09D0CF
:102E8000FFF7F8F9001BB04267D8D7F8900010F0B0
:102E9000020FF5D1B8F1000F03D0B86D20F08050CB
:102EA000B865287810F0200F32D0A8690028D7F82C
:102EB000980016D040F00100C7F89800FFF7DAF943
:102EC0000446D7F8980010F0020F21D1FFF7D2F98D
:102ED000001B022841D8D7F8980010F0020FF5D057
:102EE00016E020F00100C7F89800FFF7C3F9044688
:102EF000D7F8980010F0020F0AD000BFFFF7BAF918
:102F0000001B022829D8D7F8980010F0020FF5D13D
:102F1000E869E8B3B9683C460C2232EA01017BD08B
:102F20000228206820F08070206019D0E06820F02E
:102F30000300E060E06820F4881020F08070E0601A
:102F4000FFF798F90546206810F0007F20D000BFF9
:102F5000FFF790F9401B022859D90320BDE8F883F8
:102F6000FFF788F90646206810F0007F09D000BFFF
:102F7000FFF780F9801B0228EFD8206810F0007F4F
:102F8000F6D1D5E908016FF00F0202EB011100E064
:102F900076E00843298E5204490802EB4151AA6A9F
:102FA00041EA0221084395F834104FF07E42490867
:102FB00002EB4161084395F82C1040EAC160E168DA
:102FC000054A11400843E060206807E00010024015
:102FD00014070020007000400C809F0140F08070BA
:102FE0002060E06840F08070E060FFF743F905463C
:102FF000206810F0007F43D1FFF73CF9401B022806
:10300000ABD8206810F0007FF6D039E004E02068EB
:1030100010F0007F9CD133E0012808BFBDE8F883A1
:10302000E0682A6A00F00301914226D1696A00F043
:10303000F0020901103991421FD1AA6A00F4FE4141
:10304000B1EB022F19D195F82C2000F07841B1EBAB
:10305000C26F12D1298E00F4C00249084905A1F5BA
:103060000011914209D195F8341000F0C060490870
:103070004906A1F10071814202D00120BDE8F88328
:103080000020BDE8F883002804BF0120704770B518
:1030900000250446856290F85D0020B984F85C50F4
:1030A000204600F04FF8022284F85D202068016875
:1030B00021F040010160E068B0F5E06F8CBF0021B5
:1030C0004FF48051B0F5706F1CBFB0F5E06FA56292
:1030D0004FF00103D4F830C0BCF1000F2CD0D4E97C
:1030E00001021043D4E9042C42EA0C021043228B63
:1030F00002F400721043E2691043226A1043A26A8C
:10310000104322681060626B606AD4F818C01043E4
:103110000426E26806EA1C4C42EA0C02104308430B
:10312000216848602068C16921F40061C161256699
:1031300084F85D30002070BDB0F5E06F8CBF226375
:103140002363CCE770B586B0002400940194029408
:10315000039404940068A0F18041B1F598311CBF3C
:1031600006B070BD1848016E41F480510166016ED1
:1031700001F480510591C16C41F00101C164C16C41
:1031800001F001010591C16C41F00201C164C06C04
:10319000022500F0020005904FF40040CDE9000543
:1031A0000526694604964FF09040FEF751FF3820FF
:1031B0000090CDE90154CDE9034669460348FEF786
:1031C00047FF06B070BD0000001002400004004838
:1031D00070470000411EB1F1807F24BF012070477D
:1031E0004FF0E0204161054AF02182F8141D0021D2
:1031F0008161072101610020704700000FE000E0BD
:1032000010B5FFF7E5FF10BD90F83C20012A04BF80
:103210000220704730B4012280F83C20CA688B68D5
:1032200022F440721A434B6822F480621A430B68FE
:1032300022F400621A430B6922F480521A434B694C
:1032400022F400521A430B6B22F480421A430B8B78
:1032500022F4702242EA0342DFF860C00368184C8F
:10326000634518BFA34204D1CD6922F0805242EADF
:103270000502634518BFA34217D10D8D22F47002D9
:1032800042EA05520D6A22F0807242EA05024D6A56
:1032900022F0007242EA0502634518BFA34204D13E
:1032A000C96A22F0005242EA01025A644FF000015A
:1032B00080F83C1030BC084670470000002C0140EC
:1032C0000034014090F83C30012B0DBF0220012357
:1032D00080F83C307047F0B41368042B20D004DC35
:1032E000012B10D0022B15D003E0082B1ED0102B81
:1032F00023D04FF0000C634665466446012922D076
:10330000022934D046E000254FF0010C4FF4007341
:103310000924F3E70125AB024FF0020C0A24EDE784
:103320000225AB024FF0040C0B24E7E703254FF016
:10333000080C4FF480530C24E0E70425EB024FF017
:10334000100C0D24DAE701680E6E576826EA0C06A9
:1033500007FA05F5926805EA0C0C4CEA060CA24047
:103360002CEA030C1A4042EA0C020A6612E00168D9
:103370004E6E576826EA0C0607FA05F5926805EACC
:103380000C0C4CEA060CA2402CEA030C1A4042EA50
:103390000C024A66002180F83C10F0BC08467047D9
:1033A00090F83C20012A04BF0220704730B44FF04F
:1033B000010C80F83CC0022280F83D20026853686E
:1033C0009468A2F18045B5F596351CBFA2F1804501
:1033D000B5F59A3503D14D6823F470032B4323F0E0
:1033E00070030D6823F000732B43896824F0800478
:1033F000214353600268916080F83DC0002180F84D
:103400003C1030BC08467047002804BF01207047BC
:1034100010B5044690F83D0028B9002084F83C001F
:10342000204600F00DF8022084F83D00211D2068A0
:1034300003F0F0FA012084F83D00002010BD0000E8
:10344000006881B0A0F18041B1F596311CBF01B098
:1034500070470548016E41F400610166006E00F49A
:103460000060009001B070470010024030B587B096
:103470000021009101910291039104910068A0F153
:103480008041B1F596311CBF07B030BD1F48C16CFB
:1034900041F00401C164C16C01F004010591C16CEB
:1034A00041F00201C164C16C01F002010591C16CDF
:1034B00041F00101C164C06C022400F001000590DC
:1034C0004FF40050CDE900040425029469461048E9
:1034D000CDE90345FEF7BCFDA003CDE9000402944D
:1034E00069460C48CDE90345FEF7B2FD4FF4B850EC
:1034F000CDE9000406200294CDE9034069464FF06F
:103500009040FEF7A5FD07B030BD0000001002405E
:1035100000080048000400482DE9F04F054690F8E7
:103520003C000C4601280DBF0220012685F83C60B6
:10353000BDE8F08F022085F83D00DFF838C3CE4F9C
:10354000DFF83883CE49CF4B0C2A00F0C48006DC6C
:103550006AB1042A5ED0082A71D000F083B9102A1B
:1035600000F00681142A00F0408100F07BB9286841
:10357000026A22F001020262026AD0F80490D0F8D6
:1035800018A0D4F800B02AF0730A2AF4803A4BEA63
:103590000A0AD4F808B022F002024BEA020288427A
:1035A00018BF984204D060451CBFB842404507D1BF
:1035B000D4F80CB022F008024BEA020222F0040216
:1035C000884218BF984204D060451CBFB8424045AD
:1035D00007D1636929F4407143EA0101A36943EA11
:1035E0000109C0F80490C0F818A061684163026244
:1035F0002868816941F0080181612868816921F0AA
:103600000401816128688169226941EA02018161BE
:1036100000F028B92146286803F056FA2868816925
:1036200041F4006181612868816921F480618161D0
:1036300028688169226941EA0221E8E7FFE72868F2
:10364000026A22F480720262026AD0F80490D0F812
:103650001CA0D4F800B02AF0730A2AF4803A4BEA8E
:103660000A0AD4F808B022F4007242EA0B22884217
:1036700018BF984207D1D4F80CB022F4006242EA95
:103680000B2222F48062884218BF984204D0604521
:103690001CBFB842404507D1636929F4405141EA53
:1036A0000311A36941EA0319C0F80490C0F81CA0F3
:1036B0006168C16302622868C16941F00801C161A3
:1036C0002868C16921F00401C1612868C1692269C3
:1036D00041EA02014AE02868026A22F4805202624A
:1036E000026AD0F80490D0F81CA0D4F800B02AF4F4
:1036F000E64A2AF0807A4AEA0B2AD4F808B022F483
:10370000005242EA0B32884218BF984207D1D4F8DF
:103710000CB022F4004242EA0B3222F4804288428A
:1037200018BF984204D060451CBFB842404507D13D
:10373000636929F4404141EA8311A36941EA83198D
:10374000C0F80490C0F81CA0616801640262286897
:10375000C16941F40061C1612868C16921F48061D7
:10376000C1612868C169226941EA0221C16179E029
:103770002868026A22F480320262D0F820A04268EF
:10378000D0F85090D4F800B029F0700929F48039AD
:103790004BEA0909B4F808B02AF4003A4AEA0B4A9D
:1037A000884218BF984204D060451CBFB8424045CB
:1037B00004D122F48031626941EA02224260C0F8F9
:1037C000509061688164C0F820A02868016D41F0C4
:1037D000080101652868016D21F004010165286870
:1037E000016D226941EA02013BE02868026A22F485
:1037F00080120262D0F820A04268D0F85090D4F82D
:1038000000B029F4E04929F0807949EA0B29B4F89D
:1038100008B02AF4001A4AEA0B5A884218BF9842A4
:1038200004D060451CBFB842404504D122F4802139
:10383000626941EA82224260C0F850906168C164C6
:10384000C0F820A02868016D41F400610165286876
:10385000016D21F4806101652868016D226941EAEA
:103860000221016585F83D604FF0000085F83C00BD
:10387000BDE8F08F00400140004401400048014095
:10388000002C014000340140002804BF0120704793
:1038900010B5044690F83D0028B9002084F83C009B
:1038A000204600F00CF8022084F83D00211D20681D
:1038B00003F0B0F8012084F83D00002010BD7047EF
:1038C00070B5044690F83C00012804BF022070BD8A
:1038D000012584F83C50022084F83D00204603F086
:1038E0003BF901004FF0000005D084F83D5084F80A
:1038F0003C00012070BD2168CA6822F04002CA6005
:103900002168CA6822F48042CA6084F83D5084F875
:103910003C00002070BD90F87C10012904BF0220FB
:103920007047012180F87C102421C0F880100168C4
:103930000A680B6823F001030B6022F0005100229B
:103940004266036819602021C0F8801080F87C204E
:103950001046704790F87C10012904BF0220704780
:1039600010B4012185B080F87C102422C0F880209A
:1039700002681368D2F800C02CF0010CC2F800C035
:1039800043F000524B07436603681A601BA3D3E958
:103990000023CDE900231BA3D3E90023CDE90223B3
:1039A000426E002A04BFA0F86A10A0F868101AD06E
:1039B000026891689268C1F34261520F1DF802C01B
:1039C0004FEACC040DF1080C1CF80220B4FBF2F411
:1039D000A0F86A401DF801201CF80110D200B2FBCB
:1039E000F1F2A0F868202021C0F88010002180F8B2
:1039F0007C1005B0084610BC7047000001010103AF
:103A000007010000080402040801010190F87C206D
:103A1000012A04BF0220704730B4012384B080F82B
:103A20007C302422C0F880200268D2F800C01468DC
:103A300024F0010414600268946824F06064214357
:103A400091601B49D1E90021CDE90021194AD2E951
:103A50000012CDE90212416E002904BFA0F86A30BD
:103A6000A0F8683016D001688A688968C2F342629B
:103A7000490F1DF80140E50002AC615CB5FBF1F5B2
:103A8000A0F86A501DF80210A25CC900B1FBF2F266
:103A9000A0F868200168C1F800C02021C0F880109B
:103AA000002180F87C1004B0084630BC704700004C
:103AB000FC390008043A000890F87C20012A04BF71
:103AC0000220704730B4012384B080F87C30242277
:103AD000C0F880200268D2F800C0146824F0010405
:103AE00014600268946824F06044214391601B498B
:103AF000D1E90021CDE90021194AD2E90012CDE92E
:103B00000212416E002904BFA0F86A30A0F86830A4
:103B100016D001688A688968C2F34262490F1DF8AD
:103B20000140E50002AC615CB5FBF1F5A0F86A501C
:103B30001DF80210A25CC900B1FBF2F2A0F86820E7
:103B40000168C1F800C02021C0F88010002180F871
:103B50007C1004B0084630BC70470000FC390008F7
:103B6000043A0008002804BF0120704710B504463D
:103B7000D0F8800028B9002084F87C00204600F0AE
:103B800029F82420C4F880002068016821F0010190
:103B90000160204603F03CFB012808BF10BDA06A6D
:103BA00000281CBF204603F095FA2068416821F4E4
:103BB000904141602068816821F02A01816020687D
:103BC000016841F0010101602046BDE8104003F0AA
:103BD000EEBA000000B587B000210091019102917A
:103BE000039104910068A0F18041B1F59C311CBFA4
:103BF00007B000BD0E48016E41F480410166016EC0
:103C000001F480410591C16C41F00201C164C06CB6
:103C1000694600F002000590C0200090022001904B
:103C2000072004900348FEF713FA07B000BD000018
:103C3000001002400004004803F014F8174C082557
:103C4000D4F82001C06910F0080F07D0134803F022
:103C500079FFD4F82001056204F02CFBD4F8200190
:103C6000C06910F0800F1CBF0C4804F014F8D4F8A1
:103C70002001C16911F0200FE2D0406AC1B20748AB
:103C800003F06AFF0088012804D0022808BF04F06E
:103C900011FBD5E704F008FBD2E700005C0500202B
:103CA000012908BF002124D0042908BF012120D008
:103CB000102908BF02211CD0402908BF032118D0B9
:103CC000B1F5807F08BF042113D0B1F5806F08BF24
:103CD00005210ED0B1F5805F08BF062109D0B1F5EE
:103CE000804F08BF072104D0B1F5803F0CBF0821E9
:103CF0000921064A1830525C10440268044B595C92
:103D0000082303FA01F1114301607047AC900008E9
:103D1000B6900008012908BF002124D0042908BF5B
:103D2000012120D0102908BF02211CD0402908BF42
:103D3000032118D0B1F5807F08BF042113D0B1F55D
:103D4000806F08BF05210ED0B1F5805F08BF062146
:103D500009D0B1F5804F08BF072104D0B1F5803FED
:103D60000CBF08210921084B18305B5C1844D0F8BF
:103D700000C0064B595C064B8B402CEA030302FA49
:103D800001F1194301607047AC900008B69000083B
:103D90007300010010B50446406802F007FBA168FB
:103DA000086110BD0068012102F06ABB002808BF4D
:103DB000704710B50446007F012818BF10BD217C54
:103DC0000020012904D0022910D003291ED026E0AA
:103DD000A16881F824000121606802F015FB628B64
:103DE000B4F91210606802F090FA0CE0A16881F852
:103DF00024000021606802F007FB628BB4F9141004
:103E0000606802F082FA50B1022009E0A168012046
:103E100081F82400A068D4F816100161F4E70320AB
:103E2000207710BD70B504462DED028B002580680B
:103E3000B0EE608AF0EE408A80F82450606802F0AC
:103E4000CBFA02F0EFF900EE100A9FED0C1AB5EE76
:103E5000C08AF8EEC00A0A4880EE810AF1EE10FA34
:103E600080ED000A06DDB0EE481AF0EE680AE06860
:103E700002F05EFC6577BDEC028B70BD83F92246D3
:103E8000F8060020012303744182428303774377BD
:103E9000704702230374818242830121017700214C
:103EA00041777047006802F0B9BAC06802F0EABB17
:103EB00010B5406802F090FABDE8104002F0A9B9D0
:103EC000407F70478068006870478068406870472E
:103ED0008068C0687047806800697047027C002174
:103EE000012A08BFB0F9121008467047406802F076
:103EF00067BA006802F0BDBA8068B0F91E0070476A
:103F00008068D0F81A0070478068D0F816007047B3
:103F1000DDF800C080E80E1000210174418281822A
:103F200041830177704703220274C182091401831F
:103F300001210177002141777047826851828068B2
:103F40008182704710B504460068032102F098FA98
:103F500000281CBF0121217710BD0068072102F055
:103F60008FBA406802F056BA014661F30F0044F67A
:103F7000E61211FB02F244F6E61311FB23F10A44A8
:103F800011444942C913B1F5004FA8BF47F6FF716C
:103F900004DA11F5004FB4BF054909B261F31F40BF
:103FA00011F5004F04BF48F2010161F31F40704753
:103FB0000080FFFF70B50546084600F059F82AB2A8
:103FC00003B212FB03F14FEA254C05141CFB05F06C
:103FD000081AC0131649B0F5004FA8BF47F6FF7086
:103FE00004DA10F5004FB4BF084600B260F30F04C6
:103FF000104E10F5004F08BF66F30F0412FB05F0DA
:104000001CFB03F21044C013B0F5004FA8BF47F6E5
:10401000FF7103DA10F5004FA8BF01B2204661F32B
:104020001F4011F5004F08BF66F31F4070BD000030
:104030000080FFFF0180FFFF10B50446084600F036
:1040400017F814FB00F12214031412FB03FC614463
:104050004FEAE13C29466CF30F0114FB03F312FB1A
:1040600000F0C01AC01360F31F41084610BD0000E5
:104070000449034A0A60A0EB8220486088687047C0
:1040800040006000000C0240F8B58C460446DDE9B3
:104090000710069FC4F830C0C4E9300108481E4626
:1040A00015460090074B084A21466046FCF78EFDF6
:1040B000E763C4E90D56204600F0E4FBF8BD0000BC
:1040C000CD400008D54000087D48000810B500F03C
:1040D000D9FB10BD2DE9F04105468CB00020984673
:1040E00014460F468DF804004E0912D0721E0021AE
:1040F000284604F0F7F8002808BF0B2000F0508293
:10410000D5F8C40007F01F0718B1721E002104F093
:10411000E9F8132F80F09283DFE807F0BE0AABBD09
:10412000BCBCBBBAB9B8B7B6B5B4BCBCBCBCB300B8
:10413000267805208DF80800472E6FD028DC0F2E3A
:104140007DD00BDC0F2E6AD2DFE806F0559191622C
:10415000917979797979797979797900172E6ED091
:1041600009DCA6F11000072859D2DFE800F07171D0
:104170008080686868001D2E59D004DC182E5ED03F
:104180001C2E4DD073E0412E59D0462E60D06EE0EB
:10419000652E54D01EDC572E51D00EDC542E4ED03E
:1041A00006DC482E54D04F2E18BF532E47D05EE069
:1041B000552E18BF562E5AD141E05B2E48D004DC54
:1041C000582E18BF592E52D139E0612E18BF642ED7
:1041D0004DD134E0A6F17400152848D2DFE800F094
:1041E00018383838383847474738384747474747F7
:1041F00047472F2F2F00647831462246D5F8C40058
:1042000004F070F822463146284604F06BF815E2B7
:1042100062783146284604F065F80FE218E026E09F
:1042200062780021D5F8C40004F057F884E1627880
:104230000121D5F8C40004F050F80120FEE16078B7
:10424000A17800EB01223146284604F04BF8F5E155
:104250006078A178227900EB0120E178090401EB74
:10426000026142183146284604F03CF8E6E102209B
:1042700096E1217803208DF80800892980F08F814C
:104280000BE0DEE123E2B9E2A1E28FE266E232E294
:10429000C2E191E1D2E287E15FE2880078444068C0
:1042A0008744000024020000BE0200002402000037
:1042B00024020000BE0200009802000098020000E4
:1042C0009802000098020000980200009802000086
:1042D0009802000098020000980200009802000076
:1042E0009802000098020000980200009802000066
:1042F0009802000098020000980200009802000056
:104300009802000098020000980200009802000045
:10431000980200004802000074020000BE02000083
:104320009802000098020000980200002402000099
:10433000FA020000FA020000FA020000FA0200008D
:10434000FA020000FA020000FA020000FA0200007D
:10435000FA020000FA020000FA020000FA0200006D
:10436000FA020000FA020000FA020000FA0200005D
:10437000FA020000FA020000FA020000FA0200004D
:10438000FA020000FA020000FA020000FA0200003D
:10439000FA020000FA020000FA020000FA0200002D
:1043A000FA020000FA02000098020000FA0200007F
:1043B000FA020000FA020000FA020000BE02000049
:1043C000BE020000BE020000980200009802000039
:1043D000980200009802000024020000BE020000C3
:1043E0009802000098020000980200009802000065
:1043F0009802000098020000980200009802000055
:1044000098020000980200009802000024020000B8
:10441000BE020000FA0200009802000098020000AC
:10442000980200009802000098020000FA020000C2
:10443000FA02000098020000980200002402000026
:1044400024020000BE020000BE020000BE02000006
:10445000BE020000BE02000024020000980200001C
:1044600098020000BE020000FA020000980200005C
:104470009802000024020000BE020000BE020000FC
:10448000BE020000BE020000BE020000BE0200002C
:10449000BE020000BE020000BE020000BE0200001C
:1044A000BE02000024020000FA0200002402000004
:1044B000E4020000E4020000E402000098020000B0
:1044C000980200009802000001AA284603F09EFC12
:1044D00000909DF80400002800F0BB81D5E90C0C89
:1044E00001236A46F02100F085B900BFD5F8C40069
:1044F000002800F0A581002103F07EFC8DF800006B
:10450000D5E90C0C01236A46F021E04701208DF823
:1045100004000CB0BDE8F081D5F8C400002800F01C
:104520008F81012103F068FC8DF80000D5E90C0CA7
:1045300001236A46F021E04701207FE001AA2846D6
:1045400003F064FC00909DF80400002800F08181D5
:10455000D5E90C0C02236A46F021E0470CB0BDE817
:10456000F08101AA284603F051FC00909DF8040058
:10457000002800F06E81D5E90C0C04236A46F02176
:10458000E0470CB0BDE8F08101AA284603F03EFCEC
:1045900000909DF804000028EDD100F05AB90320E6
:1045A0008DF8080000F04CB9217807208DF808003C
:1045B000284603F0BDFB41E0002004A902460A544E
:1045C000401CC0B22028FAD3002005E00B18401C84
:1045D000C0B2DA701D2804D2D5F8C020125C092AB6
:1045E000F4D1D5F8C010421D20238A5C8DF810202C
:1045F000C21D0930895C8DF81110D5F8C01004AACD
:10460000085C8DF81200D5E90C0CF021E047012080
:104610008DF8040000F017B920796179E37800EB98
:10462000012082B22078617800EB0120A178090492
:1046300001EB03610144284603F0BCFB8DF8040044
:10464000FEE020786178E27800EB0120A17809048F
:1046500001EB026108448249086020796279E379BC
:1046600000EB0220A279120402EB03620244081D4F
:10467000026091ED001ADFED7B0A81EE200A80EDE9
:10468000000AB5EEC00AF1EE10FA3CBFB1EE400AE6
:1046900080ED000AF0EE400A10EE902AB2F17C5F45
:1046A000B8BFF6EE000AC0ED000AB0EE000A21EE37
:1046B000000A9FED6D1A20EE011ADFED6C1A2846F4
:1046C00081EE210A81ED000A03F069FBB6E720794B
:1046D0006179E37800EB012082B22078617800EB09
:1046E0000120A178090401EB0361084401B22846C6
:1046F00003F078FBA2E706A80090217807AB03AA95
:10470000284603F071FDBDF91C005949C0EB0010AB
:10471000800081FB00108110A1EBE0708DF810008B
:10472000010A8DF81110010C8DF81210000E8DF891
:104730001300BDF818008DF81400000A8DF815005C
:10474000BDF80C008DF81600000A8DF81700D5E9A9
:104750000C0C082304AAF021E04771E0E079227AEA
:10476000A37800EB022082B2607894F804C000EBDA
:104770000320E37821781B0403EB0C63184400EB5F
:1047800080004300DFF8ECC00020CCFB030358118D
:10479000A0EBE37003B2607994F806C000EB0C2044
:1047A00000B20090284603F05DFE47E7207861786C
:1047B000E27800EB012001B2A07800EB022002B207
:1047C000284603F07DFD01208DF804003BE00C201D
:1047D0008DF8080004948DF81480274904A803F08C
:1047E00013FB8DF8040058B32348F02103790268C5
:1047F000D5E90C0CE0470CB0BDE8F081002004A91D
:1048000004E00A54401CC0B220280DD2D5F8C020C4
:10481000125C002AF5D1202838BF002204D20A54A5
:10482000401CC0B22028FAD3D5E90C0C20230A463C
:10483000F021E04701208DF8040004E00120AFE6FC
:104840009DF8040028B10023D5E90C0C1A46F0218C
:10485000D0E7D5E90C0C012302AAFF21CAE700002A
:10486000100000200000B442DB0F49400000B443B8
:1048700067666666898888881800002010B500F091
:1048800001F810BD10B50446006BE16B884780202D
:1048900084F8C800A16B206BBDE8104008470000F9
:1048A00001480068FFF701BB0800002001480068CC
:1048B000FFF71FBB0800002001480068FFF7B2BAED
:1048C0000800002006480078002808BF704710B58F
:1048D00000F008F802F084FBBDE8104003F0C4BC0F
:1048E0009806002010B50E4C2078012818BF10BD86
:1048F000608800281CBF6088401E02D102F038FA90
:1049000001206080A08810B1A088401EA080E088AF
:10491000002808BF10BDE088401EE08010BD0000E8
:104920009806002001480068FFF70CBB0800002033
:1049300001480068FFF711BB080000202DE9F34F84
:1049400081B0644801F097FD634E002406F14C01EC
:10495000347062480860A1F108096148C9F8000094
:1049600000F08EFD04F084FA5E4800F0B0F906F124
:10497000240B5C48CBF8000006F120055A4828605B
:104980005A48FCF7A1F8594B594A5A482968FBF78D
:104990003CFF05F110015748086001F10C0756482B
:1049A000386000F094F905F118085448C8F8000080
:1049B0004E4B4D4A396801F085FEDBF800104B4A3A
:1049C000286801F011FD4A4803F00FFE4C4800F042
:1049D0007EF94C4800F07BF905F108004849016078
:1049E000001D484901604848706301F007FC05F16B
:1049F000280146480860716B454FC0E9437145483E
:104A000000F012F905F120004249016005F1300182
:104A10004148086001F096FB0020FCF7F9F84FF0E0
:104A2000010A87F824A0286801F0C0FC38612868D2
:104A300001F0BCFC0014B88207F128002F1FA0F180
:104A400028033860D8F80010009105F134012A6875
:104A5000FFF75EFA286801F0B9FC3B6801460022C6
:104A60001846FFF70FFA0198396801602B48DBF808
:104A70000010016005F108010968416005F10C01B1
:104A80000968C0E90214D9F80010C0E904141749F4
:104A9000C0E9061404622968416205F134018162AB
:104AA00014390968C162716BC0E90C1405F1280161
:104AB00084630968C0E90F144464D8F80010C0E9A1
:104AC000121404650299086086F800A003B0BDE8DE
:104AD000F08F0000EC06002098060020A8040020BB
:104AE0008802002034010020540200203C030020F2
:104AF00004030020B8030020B8010020E4010020D6
:104B0000600100208C010020FC0300202000002018
:104B1000C40A0020D4030020900400200C0B0020C5
:104B2000B0F80031002220F81310B0F80031A0F8DE
:104B300002315B1C9BB2A0F80031802B24BF002304
:104B4000A0F800315FF0000330F913C05B1C9BB28A
:104B50006244802BF8D3D31702EB5362D211A0F832
:104B600004210846704700210A4620F81120491CFC
:104B700089B28029F9D3A0F80021A0F8022170475A
:104B8000B0F904017047000008B5FDF7B5FF4FF418
:104B9000FA61B0FBF1F0FEF71DFB0749081FFFF7B4
:104BA000CDFE04F0C5F8044B04481A1F0090012103
:104BB000101F03F073FC08BD0C0000203E8F00089E
:104BC00010B504460078002818BF002012D194F8D0
:104BD000260001F03FF9A0F57F41FF3907D0218B76
:104BE000238A4A1E03FB0200B0FBF1F0208220461C
:104BF00000F02CF8E08280B210BD002101827047E5
:104C00000178002918BF808A01D000B27047018A5C
:104C1000026A891AB0F91E20808C5143CA1701EB31
:104C2000124100EB2140F0E710B50446007820B1B6
:104C30000020E082608A208210BD201D01F0EAF988
:104C400084F826002046FFF7D8FF10BD018A428B6A
:104C5000914284BF08207047828B8A428CBF00201B
:104C6000C08A704770B50446B0F92200104DC0B13B
:104C7000A26A8A1A50436A6094F82620104128607C
:104C80002046A16200F036F829680844A860B4F90B
:104C90001410814203DBB4F91610814205DDA960CE
:104CA00003E0204600F026F8A860288900B270BD15
:104CB00048070020B0F922007047B0F9060070479D
:104CC000408B7047B0F904007047008B7047018833
:104CD00081804188C180018C418400218160816292
:104CE00070478160704741847047C1807047818000
:104CF0007047000070B4B0F90420002402FB01F6F4
:104D0000B0F90620B0F914C0B0F91630002A04BF7B
:104D10000021816014D085684A43A91805D5002D6B
:104D2000C4BF002A6FF0004103E0002DBCBF002A81
:104D30000F49C2688A42A5BF0269914282608160C0
:104D4000827F8168057F41FA02F246FA05F52A441E
:104D50006245C4BFACEB0204624603DC9342C4BFAD
:104D60009C1A1A462144816070BC10B27047000042
:104D70000100008070B5D0F80C110446C868D1F865
:104D8000161010FB01F210FB3121C81701EB104087
:104D90000514D4F8100103F00DFCD4F808114843B1
:104DA0004FF4167190FBF1F0684300EB40000849A6
:104DB000400081FB00108110A1EBE071C81701EBEE
:104DC000104001142046BDE87040FFF7A9BE000066
:104DD0006766666670B50446002511B1012908D0E2
:104DE00017E000F007F9B4F85200A4F8440080B9C5
:104DF0000BE0B4F84400002808BF012509D0401E8C
:104E00000004000CA4F8440003D12169204688471F
:104E10000125284670BD4268104730B4038E0AB29F
:104E200053430A14B0F850104A435200524202EB66
:104E3000030CA2EB03030CEBDC7C03EBD3735FEA04
:104E40006C0C4FEA63034FEA910153D5002B18DA3B
:104E5000042280F83A20ACEB0302D41702EB943220
:104E600001EBA241DA1703EBD23201EB62434FEAC6
:104E7000EC720CEBD232A1EB624CA0F83CC0C187C3
:104E80006CE0002A1BDC4FF0030C80F83AC0A2EB68
:104E9000030C4FEAEC740CEB943C01EBAC414FEA91
:104EA000E37C03EBDC334FEAE27C01EB634302EB90
:104EB000DC32A3EB624CA0F83CC0C38717E00223AE
:104EC00080F83A30ACEB0203DC1703EB943301EBD0
:104ED000A3414FEAEC730CEBD333A1EB634CD31734
:104EE00002EBD3320CEB62438387A0F83EC0A0F8FC
:104EF000401052E0002B17DB012280F83A20ACEB87
:104F00000302D41702EB943201EBA241DA1703EB50
:104F1000D23201EB62434FEAEC720CEBD232838760
:104F2000A1EB624CC18736E0002A1ADC052380F829
:104F30003A30ACEB0203DC1703EB943301EBA341F3
:104F40004FEAEC730CEBD333A1EB634CD31702EBBA
:104F5000D33281870CEB6243A0F83EC0A0F840300A
:104F60001BE04FF0000C80F83AC0A2EB030C4FEAB4
:104F7000EC740CEB943C01EBAC414FEAE37C03EBAB
:104F8000DC3301EB63434FEAE27C02EBDC328187E6
:104F9000A3EB624CC387A0F840C089B29AB24186A5
:104FA00082861FFA8CF3C386B0F84EC0BCF1010FA5
:104FB00002D0816930BC0847B0F948C0BCF1000F8D
:104FC000B0F854C0CCBF6144A1EB0C014186B0F9EC
:104FD0004A1000291FFA8CF1CCBF1144511A818666
:104FE000B0F94C1000291FFA8CF1CCBF1944591AA2
:104FF000C186DEE781680847C168084741690847FC
:10500000816882B021F03F0121F0204181608168F8
:10501000C1F3007141BB816821F03F0121F00041E3
:1050200041F0805181602D492D4A0968B1FBF2F1B0
:1050300001910091C1B1B1F1004F4AD20029D8BF0E
:10504000002105DD11F0010102D0019A521E0192EA
:10505000009A491C521C914206DA019B891C5B1E76
:105060005B1E01939142F8DB816821F03F0121F042
:10507000404141F0004181608168C90FFCD1016865
:1050800011F0010F0BD1816821F03F0121F00041A7
:1050900041F001018160016811F0010FF3D08168D6
:1050A00021F03F0121F0004141F008018160816859
:1050B00021F03F0121F0004141F020018160C168F1
:1050C00021F4001121F0004141F40011C16002B04F
:1050D00070470199491E0191FCD1C5E720070020C6
:1050E000400D030090F8701091B9416F91F8BA200B
:1050F000022A0DD10A6AB1F8AC109162416F4A6A76
:10510000B1F8AE109162426F916AB2F8B0208A6233
:10511000012180F86E1046307047416F89684A6CF3
:1051200042F480624A64012180F86F1080F87010A8
:10513000463070472DE9F0470446406F0026D0E91D
:105140000185D0F80090E6652666666684F86C6096
:10515000286A20F0550020F4A0602862514961605F
:105160005149A1618021A4F86A10042784F86D7068
:10517000204684F83A7000F051FD4C4869680140BF
:105180007029FBD1D9F8080020F03F0020F0004042
:1051900040F00800C9F80800D8F8080020F03F00E7
:1051A00020F0004040F00800C8F80800606F04F1EB
:1051B0006C0304F1380190F8BB20284603F08EFE02
:1051C000204600F0F1FC84F86C603948606084F897
:1051D0006D6084F83A60204600F020FD606F04F1B5
:1051E0006C0304F1380190F8BB20284603F076FEEA
:1051F000204600F0D9FCE06D30490009E065206EE2
:1052000000092066606E000960662A4860602A48CE
:10521000A0610A7805F1180002EB000CDCF80080B0
:1052200001F10A02082392F8009003FA09F928EA2A
:105230000908CCF8008091F802C08444DCF80080B2
:1052400092F8029003FA09F928EA0908CCF80080DC
:10525000097908440168127903FA02F29143016066
:10526000B4F868006863B4F86800A863B4F868002C
:10527000E86301212846FEF713FD10212846FEF7BA
:105280000FFD4FF480712846FEF70AFD296A40F2AF
:1052900055500843286284F83A7084F87060BDE87D
:1052A000F0870000E15300087D5A000870000002FA
:1052B00039540008C1520008B15A0008AC900008E7
:1052C00070B490F83AC0436F4C2404EB8C049A6895
:1052D0001C592568642404EB8C041B591C68536812
:1052E00023F0700323F0007353603C4A530CBCF16D
:1052F000060F64D2DFE80CF01D404003031DD0F818
:105300005CC0ACEB050C1CF5004FD8BF0A8005DD76
:10531000BCF5004FACBF0B80A1F800C0D0F860C056
:10532000ACEB040C1CF5004F45DDBCF5004F3DDA3D
:1053300043E0D0F860C0ACEB050C1CF5004FD8BFC3
:105340004A8005DDBCF5004FACBF4B80A1F802C020
:10535000D0F864C0A4EB0C0CB1F90240ACEB040C27
:10536000BCF5004FA8BF0B8029DA1CF5004FD4BF55
:105370000A80A1F800C022E0D0F85CC0ACEB050CBC
:105380001CF5004FD8BF0A8005DDBCF5004FACBF4F
:105390000B80A1F800C0D0F864C0A4EB0C0CB1F9EC
:1053A0000040ACEB040CBCF5004F01DB4B8006E089
:1053B0001CF5004F01DC4A8001E0A1F802C00A8818
:1053C000A0F848204A88A0F84A200A884988114451
:1053D0004942A0F84C1070BC704700000180FFFFEC
:1053E00030B490F86D40426F4FF04C0C0CEB840CD5
:1053F000936852F80CC0DCF800C0642505EB840407
:10540000125912685C6824F0700424F000745C6027
:1054100090F86C30102B0AD2C36D6344C365036EE1
:105420001A44026690F86C20521C80F86C20002010
:105430000880488030BC704710B4436F90F86DC04E
:10544000642404EB8C0C9A6853F80C301B68D2F877
:1054500004C02CF0700C2CF0007CC2F804C090F852
:105460006C20102A07D2426E1A44426690F86C20D3
:10547000521C80F86C2000200880488010BC7047C7
:105480002DE9F04F0546406F83B0D0E90B13D0E90A
:10549000032AD0E90687D0F814900293436B019356
:1054A000836B0093D0E9004B8668606820F00400AD
:1054B000606004202060636823F020036360202381
:1054C0002360DBF804C02CF0040CCBF804C0CBF84C
:1054D0000000DBF8040020F02000CBF80400CBF83B
:1054E00000308448A6F18043B3F5963303690CBFBE
:1054F00043F4006343F4005303618AB1106818B1A8
:10550000036843F001030360506818B1036843F077
:1055100001030360906818B1026842F00102026062
:10552000BAF1000F15D0686F90F8BD20012A04D0A1
:10553000B0F8B620C06B00F0F7FADAF8000040F0DF
:105540000100CAF80000DAF8000040F00040CAF894
:105550000000B9F1000F16D0686F90F8BE10012955
:1055600005D0B0F8B620006C029900F0DDFAD9F849
:10557000000040F00100C9F80000D9F8000040F038
:105580000040C9F80000B8F1000F16D0686F90F81D
:10559000BF10012905D0B0F8B620406C019900F089
:1055A000C3FAD8F8000040F00100C8F80000D8F8AD
:1055B000000040F00040C8F8000097B1686F90F814
:1055C000C010012905D0B0F8B820806C009900F017
:1055D000ABFA386840F001003860386840F00040AD
:1055E0003860A06810F0010F08D12046FFF708FDD1
:1055F00040202060606840F040006060DBF80800F8
:1056000010F0010F04BF5846FFF7FAFC344630682B
:105610004FF47A7720F001003060706820F070005D
:1056200020F00070706001213046FEF739FB102138
:105630002046FEF735FB4FF480712046FEF730FB25
:105640004FF480512046FEF72BFB606940F00100CB
:105650006061686F90F8C110022903D095F8461078
:1056600099B126E090F8C210012904BF90F8BB0060
:10567000032811D14FF001002063606940F0010060
:1056800060614FF00300206306E090F8BB00012842
:1056900002D0032805D00CE0B5F86800401E606217
:1056A00007E001202063606940F001006061032091
:1056B00020636FF080002061686F90F8BC000028C4
:1056C00018BF6FF4807108D02069C0F30020002853
:1056D0001EBF002F21617F1EF6D1E06840F08000E0
:1056E000E060216A40F2555041EA0000206203B0B8
:1056F000BDE8F08F002004E0002190F86F300A46EA
:10570000012B04BF022180F86F2090F86E30012B2E
:1057100004BF41F0400180F86E2008467047000049
:1057200070B50546406F846895F84700012818BF9A
:1057300070BD602201212046FEF7ECFA206A40F09D
:1057400001002062686F90F8BA00012804BF206A47
:1057500040F0040005D0022804BF206A20F00400B5
:1057600000D12062B5F86800400860636022102113
:105770002046FEF7CFFA206A40F010002062686FE2
:1057800090F8BA00012804BF206A40F0400005D01C
:10579000022804BF206A20F0400000D12062B5F842
:1057A00068004008A06360224FF480712046FEF735
:1057B000B1FA206A40F480702062686F90F8BA00F5
:1057C000012804BF206A40F4806005D0022804BF8D
:1057D000206A20F4806000D12062B5F8680040089B
:1057E000E06306486860064868610648E860064865
:1057F000A860002085F8470070BD0000C152000875
:105800006B5D00081D5C0008A95B000870B50546CB
:10581000406F846895F84700002840D1602201213C
:105820002046FEF777FA206A40F001002062206AE5
:1058300020F00400206200206063686F90F8BA00D6
:10584000012802D002280DD019E01022114620466E
:10585000FEF760FA206A20F010002062206A40F013
:1058600040000BE0202210212046FEF753FA206A68
:1058700040F010002062206A20F040002062702278
:105880004FF480712046FEF745FA206A20F48070BC
:105890002062206A20F480602062286EE865064855
:1058A0006860064868610648E8600648A86001200C
:1058B00085F8470070BD000031590008355A0008CE
:1058C00079590008A95B000870B50446406F702242
:1058D0008568B4F868004843000C60864FF4805136
:1058E0002846FEF717FAB4F86800B4F85610401AC4
:1058F0002864B4F85800E863608E6863686820F034
:10590000700020F0007040F070006860032084F8A0
:105910003A0068680549084018BF0120218F012915
:1059200018BF70BD01200021218770BD70000002EA
:10593000426F9268536823F0700323F00073536042
:1059400090F83A304FF0640C426F0CEB8303D2585E
:105950001268006E801A074A9042D8BF104605DDD3
:1059600047F6FF729042A8BF47F6FF700880488054
:10597000704700000180FFFF10B4426F6FF0010418
:10598000D2E901C113680C610A6912F0010FFBD062
:105990000C6101224A63B0F86820521F0A640A6948
:1059A00012F0010FFBD0CA6842F00102CA604A6CD3
:1059B00042F480624A644A6C42F400424A64426F94
:1059C00092F8BA40022C1ED1096A40F25554214285
:1059D000116AB2F8AC200BD08A61426F516AB2F8FA
:1059E000AE208A61416F8A6AB1F8B01091620AE014
:1059F0008A62426F516AB2F8AE208A62426F916A3F
:105A0000B2F8B0208A62032180F83A10986820F03A
:105A10003F0020F0004040F008009860DCF80800EB
:105A200020F03F0020F0004040F00800CCF80800D3
:105A300010BC7047416F002289684A63921E0A6158
:105A40000A6912F0010FFBD04A6C42F400424A642A
:105A5000416F91F8BA20022A18BF70470A6AB1F85C
:105A6000AC109161426F516AB2F8AE208A62416F08
:105A7000886AB1F8B01081627047000090F86D102C
:105A800080F83A10B0F86810438E491E8AB2416F10
:105A900089684B63838E8B63C08EC8630A644868D1
:105AA0000249084018BF0120704700007000000242
:105AB00030B4446FB0F86820818FB4F8B2C0531A84
:105AC0009BB2634506D9042180F83A1091B2491E71
:105AD00089B217E0C58F4D1BADB2B5EB430F84BF44
